{
  "contractName": "PushButton",
  "abi": [
    {
      "constant": true,
      "inputs": [],
      "name": "nextTimeoutBlock",
      "outputs": [
        {
          "name": "",
          "type": "uint256"
        }
      ],
      "payable": false,
      "stateMutability": "view",
      "type": "function"
    },
    {
      "constant": true,
      "inputs": [],
      "name": "startBlock",
      "outputs": [
        {
          "name": "",
          "type": "uint256"
        }
      ],
      "payable": false,
      "stateMutability": "view",
      "type": "function"
    },
    {
      "constant": true,
      "inputs": [],
      "name": "title",
      "outputs": [
        {
          "name": "",
          "type": "string"
        }
      ],
      "payable": false,
      "stateMutability": "view",
      "type": "function"
    },
    {
      "constant": true,
      "inputs": [],
      "name": "interval",
      "outputs": [
        {
          "name": "",
          "type": "uint256"
        }
      ],
      "payable": false,
      "stateMutability": "view",
      "type": "function"
    },
    {
      "constant": true,
      "inputs": [],
      "name": "totalPush",
      "outputs": [
        {
          "name": "",
          "type": "uint256"
        }
      ],
      "payable": false,
      "stateMutability": "view",
      "type": "function"
    },
    {
      "inputs": [],
      "payable": false,
      "stateMutability": "nonpayable",
      "type": "constructor"
    },
    {
      "anonymous": false,
      "inputs": [
        {
          "indexed": true,
          "name": "_adress",
          "type": "address"
        },
        {
          "indexed": false,
          "name": "_totalPush",
          "type": "uint256"
        },
        {
          "indexed": false,
          "name": "_nextTimeoutBlock",
          "type": "uint256"
        }
      ],
      "name": "ButtonPushed",
      "type": "event"
    },
    {
      "constant": false,
      "inputs": [],
      "name": "push",
      "outputs": [
        {
          "name": "",
          "type": "bool"
        }
      ],
      "payable": false,
      "stateMutability": "nonpayable",
      "type": "function"
    },
    {
      "constant": true,
      "inputs": [],
      "name": "getBlock",
      "outputs": [
        {
          "name": "",
          "type": "uint256"
        }
      ],
      "payable": false,
      "stateMutability": "view",
      "type": "function"
    }
  ],
  "bytecode": "0x608060405261065460015534801561001657600080fd5b50436000819055506001546000540160028190555060006003819055506105ba806100426000396000f3fe608060405260043610610083576000357c0100000000000000000000000000000000000000000000000000000000900463ffffffff1680632e97766d1461008857806345bae054146100b357806348cd4cb1146100de5780634a79d50c146101095780638035f0ce14610199578063947a36fb146101c8578063f92307fc146101f3575b600080fd5b34801561009457600080fd5b5061009d61021e565b6040518082815260200191505060405180910390f35b3480156100bf57600080fd5b506100c8610226565b6040518082815260200191505060405180910390f35b3480156100ea57600080fd5b506100f361022c565b6040518082815260200191505060405180910390f35b34801561011557600080fd5b5061011e610232565b6040518080602001828103825283818151815260200191508051906020019080838360005b8381101561015e578082015181840152602081019050610143565b50505050905090810190601f16801561018b5780820380516001836020036101000a031916815260200191505b509250505060405180910390f35b3480156101a557600080fd5b506101ae6102d0565b604051808215151515815260200191505060405180910390f35b3480156101d457600080fd5b506101dd610376565b6040518082815260200191505060405180910390f35b3480156101ff57600080fd5b5061020861037c565b6040518082815260200191505060405180910390f35b600043905090565b60025481565b60005481565b60048054600181600116156101000203166002900480601f0160208091040260200160405190810160405280929190818152602001828054600181600116156101000203166002900480156102c85780601f1061029d576101008083540402835291602001916102c8565b820191906000526020600020905b8154815290600101906020018083116102ab57829003601f168201915b505050505081565b60006002546102dd61021e565b111515156102ea57600080fd5b600160036000828254019250508190555060015461030661021e565b01600281905550610315610382565b3373ffffffffffffffffffffffffffffffffffffffff167f95d4487d375c98cfd95f58cfff603334d142a33402e11df401014b615f717fc6600354600254604051808381526020018281526020019250505060405180910390a26001905090565b60015481565b60035481565b600a60035410156103de576040805190810160405280600681526020017f6e65776269650000000000000000000000000000000000000000000000000000815250600490805190602001906103d89291906104e9565b506104e7565b6103e8600354101561043b576040805190810160405280600a81526020017f61707072656e7469636500000000000000000000000000000000000000000000815250600490805190602001906104359291906104e9565b506104e6565b6127106003541015610498576040805190810160405280600681526020017f6d61737465720000000000000000000000000000000000000000000000000000815250600490805190602001906104929291906104e9565b506104e5565b6040805190810160405280600881526020017f62656c6965766572000000000000000000000000000000000000000000000000815250600490805190602001906104e39291906104e9565b505b5b5b565b828054600181600116156101000203166002900490600052602060002090601f016020900481019282601f1061052a57805160ff1916838001178555610558565b82800160010185558215610558579182015b8281111561055757825182559160200191906001019061053c565b5b5090506105659190610569565b5090565b61058b91905b8082111561058757600081600090555060010161056f565b5090565b9056fea165627a7a723058202aa648543546b323cba44e3049262bfc43c4211ad79d0d3be7b4b549cda267ae0029",
  "source": "pragma solidity ^0.5.0;\n\ncontract PushButton {\n    uint public startBlock;\n    uint public interval = 108 * 60 / 4;\n    uint public nextTimeoutBlock;\n    uint public totalPush;\n    string public title;\n\n    event ButtonPushed(address indexed _adress, uint _totalPush, uint _nextTimeoutBlock);\n\n    constructor() public {\n        startBlock = block.number;\n        nextTimeoutBlock = startBlock + interval;\n        totalPush = 0;\n    }\n\n    function push() isTimeOut() public returns (bool) {\n        totalPush += 1;\n        nextTimeoutBlock = getBlock() + interval;\n        checkTitle();\n        emit ButtonPushed(msg.sender, totalPush, nextTimeoutBlock);\n        return true;\n    }\n\n    modifier isTimeOut(){\n        require(getBlock() <= nextTimeoutBlock);\n        _;\n    }\n\n    function getBlock() view public returns (uint) {\n        return block.number;\n    }\n\n    function checkTitle() internal {\n        if (totalPush < 10) {\n            title = \"newbie\";\n        } else if (totalPush < 1000) {\n            title = \"apprentice\";\n        } else if (totalPush < 10000) {\n            title = \"master\";\n        } else {\n            title = \"believer\";\n        }\n    }\n}",
  "sourcePath": "/home/mikeyang/Desktop/push-button/contracts/PushButton.sol",
  "compiler": {
    "name": "solc",
    "version": "0.5.0+commit.1d4f565a.Emscripten.clang"
  },
  "schemaVersion": "3.0.2",
  "updatedAt": "2019-02-15T04:31:07.041Z",
  "devdoc": {
    "methods": {}
  },
  "userdoc": {
    "methods": {}
  }
}